:020000040000fa
:08000000620204000000000090
:020000040000fa
:100008005e0200005e0200005e0200005e02000068
:100018005e0200005e0200005e0200005e02000058
:100028005e0200005e0200005e0200005e02000048
:100038005e0200005e0200005e020000a6060000ec
:100048005e0200005e0200005e0200005e02000028
:100058005e0200005e0200005e0200005e02000018
:100068005e0200005e0200005e0200005e02000008
:100078005e0200005e0200005e0200005e020000f8
:100088005e0200005e0200005e0200005e020000e8
:100098005e0200005e0200005e0200005e020000d8
:1000a8005e0200005e0200005e0200005e020000c8
:1000b8005e0200005e0200005e0200005e020000b8
:1000c8005e0200005e0200005e0200005e020000a8
:1000d8005e0200005e0200005e0200005e02000098
:1000e8005e0200005e0200005e0200005e02000088
:1000f8005e0200005e0200005e0200005e02000078
:100108005e0200005e0200005e0200005e02000067
:100118005e0200005e0200005e0200005e02000057
:100128005e0200005e0200005e0200005e02000047
:100138005e0200005e0200005e0200005e02000037
:100148005e0200005e0200005e0200005e02000027
:100158005e0200005e0200005e0200005e02000017
:100168005e0200005e0200005e0200005e02000007
:100178005e0200005e0200005e0200005e020000f7
:100188005e0200005e0200005e0200005e020000e7
:100198005e0200005e0200005e0200005e020000d7
:1001a8005e0200005e0200005e0200005e020000c7
:1001b8005e0200005e0200005e0200005e020000b7
:1001c8005e0200005e0200005e0200005e020000a7
:1001d8005e0200005e0200005e0200005e02000097
:1001e8005e0200005e0200005e0200005e02000087
:0801f8005e0200005e0200003f
:020000040000fa
:100208005e0200005e0200005e0200005e02000066
:100218005e0200005e0200005e0200005e02000056
:100228005e0200005e0200005e0200005e02000046
:100238005e0200005e0200005e020000a6060000ea
:100248005e0200005e0200005e0200005e02000026
:100258005e0200005e0200005e0200005e02000016
:100268005e0200005e0200005e0200005e02000006
:100278005e0200005e0200005e0200005e020000f6
:100288005e0200005e0200005e0200005e020000e6
:100298005e0200005e0200005e0200005e020000d6
:1002a8005e0200005e0200005e0200005e020000c6
:1002b8005e0200005e0200005e0200005e020000b6
:1002c8005e0200005e0200005e0200005e020000a6
:1002d8005e0200005e0200005e0200005e02000096
:1002e8005e0200005e0200005e0200005e02000086
:1002f8005e0200005e0200005e0200005e02000076
:100308005e0200005e0200005e0200005e02000065
:100318005e0200005e0200005e0200005e02000055
:100328005e0200005e0200005e0200005e02000045
:100338005e0200005e0200005e0200005e02000035
:100348005e0200005e0200005e0200005e02000025
:100358005e0200005e0200005e0200005e02000015
:100368005e0200005e0200005e0200005e02000005
:100378005e0200005e0200005e0200005e020000f5
:100388005e0200005e0200005e0200005e020000e5
:100398005e0200005e0200005e0200005e020000d5
:1003a8005e0200005e0200005e0200005e020000c5
:1003b8005e0200005e0200005e0200005e020000b5
:1003c8005e0200005e0200005e0200005e020000a5
:1003d8005e0200005e0200005e0200005e02000095
:1003e8005e0200005e0200005e0200005e02000085
:0803f8005e0200005e0200003d
:020000040000fa
:1004000091018800800078000000eb0015003700a3
:10041000e280400032a0b4009101ba00e2804000c6
:1004200032a0b4009102ba00e280400032a0b400d1
:100430000002eb00472bde00f507b200602ce10064
:1004400004003a000059eb008301e900fdff3e0083
:10045000040037006128e100010032000082eb0057
:10046000040007001101ba000200e000e8ff3a00b2
:10047000000006003159ba008301e9000c00320087
:100480002159ba008301e900080032000400e000ad
:1004900003003a00e280400032a0b400f5ff3700cc
:1004a00011d9ba008301e900faff3a008100e8009f
:1004b000e180400032a0b400000006000040da00f5
:0404c0000000fe003a
:020000040000fa
:1004c4000fb02100c07d240000018800000000005e
:1004d4000000eb00000778000c000900002f7800f2
:1004e4000007eb0000002000203a880020022000d2
:1004f400303a880000702000503a88000001200043
:10050400800888000621ef00f003200060088800be
:10051400404427003005880084e0a90094e0a80046
:1005240081e0a800f0102000801f88000000200057
:10053400a01f880000402800901f88003000200081
:1005440000168800c422ef00f084230040168800bf
:10055400cc22ef00cc82a800cca2a8004400a900c1
:10056400004e2100001988000000200010198800a6
:1005740060602000201988001000200040198800c5
:10058400000020003019880000fc2f00601988004a
:10059400000020008019880085a0a90095a0a9006a
:1005a40021e3a8002023a8006080200040358800b3
:1005b400007020003036880080002000403688001b
:1005c4000000200000128800e05320001012880070
:1005d4004422ef0041e2a8000e29ef00c442a90022
:1005e400c462a900c482a90000802100ff000900a0
:1005f4000018eb0000a021007f0009000018eb00a8
:1006040000802100804888000090210090488800e4
:100614001429ef001629ef002e29ef002c29ef00f2
:1006240000002000d048880000fe2300c048880055
:100634002229ef002029ef00f01f200090498800b4
:10064400a0498800e0498800f0ff2f00b0498800e5
:10065400a0942000130009000018eb000029ef000b
:100664000229ef000429ef00f0ff2700603f8a0011
:10067400f0ff2700703f8a00400a2000803f8a0074
:100684000629ef000829ef0010002000903f8a009f
:10069400f0ff2f00a03f8a0010582200b03f8a00cc
:1006a400f0a72500c03f8a000a29ef000c29ef00bb
:1006b400f0ff2f00d03f8a0010002000e03f8a00a6
:1006c400f0a72500f03f8a0000002000c01f88002a
:1006d400c01f8800f1e3a80011e1a8000e29ae00b4
:1006e4009203040000000000b203020000000000b6
:1006f40012050200000000000ec9af00060502004a
:10070400000000000e49ae00920304000000000047
:100714003405020000000000e005020000000000b3
:10072400f0c4b300d0c4b300d0c4b30010c4b30049
:10073400e0c4b30090c4b30000c5b30010c4b30058
:1007440040c4b300d0c4b30050c4b30080c4b300e9
:1007540050c5b300d0c4b30070030400000000000f
:100764000e29a9000f49ae000c040400000000008b
:10077400d04880000180200026070200000000000d
:10078400e0488000018820002607020000000000e5
:100794000301200004408000054480006749800074
:1007a40028802000298820000ba82100fcff2700b6
:1007b4000c836b003f000800040000005300c100dc
:1007c4005212c5003b00cd00838343000c836b00b1
:1007d4006749880007f0a600140404000000000024
:1007e4002c29ef00e0488000d04888000f49a90078
:1007f4000f69ae001404040000000000f0488000fb
:10080400e04888000f49a8000f69a90014040400f7
:1008140000000000d048800001a821002607020043
:100824000000000028972000894f80000a01200062
:100834003f000800090000000ea9ae002c040400cb
:10084400000000008a84440009f0a600300404007b
:10085400000000000ea9a900f9ff2700091c780078
:10086400018021000e09ae00018821000ca02100a6
:100874000da82100289720000b0020000e69ae006f
:10088400fbff27003f000800070000003103780049
:100894003d027800b80278008b826a001301c4001c
:1008a400254b80001201c0003c00cd0004488000ac
:1008b400673f820008a02100ea7e240015488000da
:1008c4000500ca0020488000100188003f0008008d
:1008d40004000000064cc2001a0dc200064dc500fb
:1008e4000500cd00051c78000000cc0010488800ed
:1008f400100180002048880004488800973f820047
:1009040008a021004a7f2400354880000500ca0061
:1009140040488000100188003f00080006000000e5
:10092400064cc500060dc2000500cd00178dc2009f
:10093400068dc5000680cd00061c78000000cc00a2
:10094400304888001001800040488800d73f82006a
:1009540008a02100ca7f2400554880000500ca0071
:1009640060488000100188003f0008000500000076
:10097400064cc5001a0dc2000500cd000480ca0053
:1009840006cdc5003880cd000000cc00504888005a
:100994001001800060488800029021000e09ae001a
:1009a400029821000da82100289720000b002000a8
:1009b4000e69ae00fbff27003f000800090000009d
:1009c4003d027800054b8000380378000b036b0070
:1009d4001301c4000500cd000e89af00054b800053
:1009e4001301c0003200cd007007020000000000b7
:1009f400000220001a29b4001c29b4001e29b400e6
:100a04001829b400000006002e29ed004220ae0093
:100a1400000006000ec9a9000ee9a80000000600a7
:100a24000f09af003029ec003e29ed004220af0051
:100a3400c482a9003429ed004260ae000000060023
:100a44004260a90090498000a0498800400020002d
:100a5400f0498800c482a800f0ff2f00b049880044
:100a64000000060001942000a2942000e3952000d9
:100a74000400080017000000000020003102780084
:100a8400b202500022035a000602780047b3de0087
:100a9400c72ade00f407b2004922dd008482720016
:100aa4001299420012114b0032027800b302520034
:100ab4003202780023035a000602780047b3de00ae
:100ac400c72ade00f407b2004922dd0084827200e6
:100ad4009399420093194b000e49a900414b8000a1
:100ae400c408de000100a10000002000900188007d
:100af40020b02300010040001001ba0000002000d3
:100b04009001880020b02200c110dd0001004000e7
:100b14009001ba00e1498000810069004220af00e1
:100b2400b405040000000000e249880092498800ee
:100b3400c34988004511dd00c1488000028150008e
:100b44000f49ae00b005040000000000f248880020
:100b54000f69a800b405040000000000e248880002
:100b64000f49a8000000200090018800007d2200a9
:100b7400614b8000c608de000100a10001004000b6
:100b84000013b0001000ba00a03f8a00903f8a0012
:100b94000000200090018800007d2200814b80002d
:100ba400c608de000100a100010040001000ba00e8
:100bb400e03f8a00d03f8a00000006002049800000
:100bc40026a9b60024a9ee0040498000ca82b600d6
:100bd4002429b6002629b6000080ea002409b700bb
:100be4002609b7000080ea005049880028a9b60009
:100bf4002ba9ae003c0604000000000029a9af00a8
:100c040020060400000000000ea9af003c0604000a
:100c1400000000000e69aa00c442aa000ea9a800a0
:100c2400f029ef00a00f2000704988000ee9a90008
:100c34000ec9a8003c060400000000000ec9a9006b
:100c44000e69ae003c060400000000000ee9ae0090
:100c54003c060400000000000e69a900c442a9007b
:100c64000ee9a900f0ff2f000ea9af00f0a9b6000d
:100c74000ea9a8002b89ae0098060400000000000d
:100c84002989af0098060400000000000f29af0076
:100c94005a060400000000003029ef000f09a800e4
:100ca4000f29a800c462a8009806040000000000f0
:100cb4000f09a9000f29a900c462a9008249800074
:100cc40000802f003009b6004220ae00f27f2000e1
:100cd400924988003429ef00000020009001880028
:100ce40020b02200c110dd00010040001000ba0055
:100cf400c04988004510dd00c148800000805000d4
:100d04000f49ae009006040000000000f04888007f
:100d14000f69a8009806040000000000e04888005d
:100d24000f49a80098060400000000002969af00dc
:100d3400a2060400000000000e89a80000000600be
:100d44000e89a9000000060000a0fe0084e0a900ae
:100d54001629ae00c006040000000000021880003e
:100d64004311dd00019420001609d5000000e900bc
:100d740082307800e40604000000000002188000bd
:100d84004411dd0002f0a20080488000a1488000e8
:100d940002b078009048800060817800c21f88000b
:100da40014a9ec0014e9ae00e406040000000000fd
:100db4001429ef000e29a8000e09aa0010e9aa00c0
:100dc40012e9aa0016a9ec00b04880004081b200e4
:100dd4004220ae00f4060400000000001629ef00d3
:100de4000e49a8000000200090018800c07b20006c
:100df4001609b4001000ba00401988002023a80086
:100e04000f09af00220704000000000000102000ba
:100e14003a29b400c04980003629b5004200ae002a
:100e24003629ef003a89bf003609e30003003e008b
:100e3400c462a9002207040000000000c462a800e4
:100e44000080fe00004006001049880023e9a90044
:100e54002029ef002229d4002229d40020a9d60079
:100e64001be9ae00cc82a9001be9af00cca2a9000b
:100e7400003020002029b700401280000049800083
:100e8400401288004002ae00440704000000000045
:100e94004012800010498000401288004002ae00d9
:100ea4005007040000000000401280003f000800ca
:100eb400060000000000eb00401288004002ae0073
:100ec40060070400000000004012800080187800d1
:100ed400cc82a800cca2a80000000600c048800074
:100ee4001049880023e9a9002029ef002229d40011
:100ef4002229d40020a9d60019e9ae00cc82a90089
:100f040019e9af00cca2a900002020002029b700d5
:100f14004012800000498000401288004002ae0068
:100f24009007040000000000401280001049800077
:100f3400401288004002ae009c070400000000003c
:100f440001a021003f0008000600000040128000bc
:100f540031007800401288004002ae00ae07040061
:100f64000000000000000000cc82a800cca2a80071
:100f7400000006000500000000000000050000005d
:100f84000100000005000000020000000500000050
:100f94000300000005000000040000009d80000024
:100fa4009e8000009e8000009e8000009f800000c4
:100fb4009f800000a0800000a0800000a1800000ad
:100fc400a1800000a2800000a2800000a380000095
:100fd400a3800000a4800000a4800000a58000007d
:100fe400a5800000a6800000a6800000a780000065
:100ff400a7800000a8800000a8800000a98000004d
:10100400a9800000aa800000aa800000ab80000034
:10101400ac800000ac800000ad800000ad8000001a
:10102400ae800000ae800000af800000af80000002
:10103400b0800000b0800000b1800000b1800000ea
:10104400b2800000b2800000b3800000b4800000d1
:10105400b4800000b5800000b5800000b6800000b8
:10106400b6800000b7800000b7800000b8800000a0
:10107400b9800000b9800000ba800000ba80000086
:10108400bb800000bb800000bc800000bd8000006d
:10109400bd800000be800000be800000bf80000054
:1010a400bf800000c0800000c1800000c18000003b
:1010b400c2800000c2800000c3800000c480000021
:1010c400c4800000c5800000c5800000c680000008
:1010d400c7800000c7800000c8800000c8800000ee
:1010e400c9800000ca800000ca800000cb800000d4
:1010f400cb800000cc800000cd800000cd800000bb
:10110400ce800000cf800000cf800000d08000009f
:10111400d0800000d1800000d2800000d280000086
:10112400d3800000d4800000d4800000d58000006b
:10113400d6800000d6800000d7800000d880000050
:10114400d8800000d9800000d9800000da80000037
:10115400db800000db800000dc800000dd8000001c
:10116400dd800000de800000df800000e080000001
:10117400e0800000e1800000e2800000e2800000e6
:10118400e3800000e4800000e4800000e5800000cb
:10119400e6800000e6800000e7800000e8800000b0
:1011a400e9800000e9800000ea800000eb80000094
:1011b400eb800000ec800000ed800000ee80000079
:1011c400ee800000ef800000f0800000f08000005e
:1011d400f1800000f2800000f3800000f380000042
:1011e400f4800000f5800000f6800000f680000026
:1011f400f7800000f8800000f9800000f98000000a
:10120400fa800000fb800000fc800000fc800000ed
:10121400fd800000fe800000ff80000000810000cf
:1012240000810000018100000281000003810000b0
:101234000381000004810000058100000681000094
:101244000781000007810000088100000981000077
:101254000a8100000b8100000c8100000c81000059
:101264000d8100000e8100000f810000108100003c
:101274001081000011810000128100001381000020
:101284001481000015810000158100001681000002
:101294001781000018810000198100001a810000e4
:1012a4001b8100001b8100001c8100001d810000c7
:1012b4001e8100001f8100002081000021810000a8
:1012c400228100002281000023810000248100008b
:1012d400258100002681000027810000288100006c
:1012e400298100002a8100002a8100002b8100004e
:1012f4002c8100002d8100002e8100002f81000030
:10130400308100003181000032810000338100000f
:1013140034810000358100003681000037810000ef
:101324003781000038810000398100003a810000d3
:101334003b8100003c8100003d8100003e810000b3
:101344003f81000040810000418100004281000093
:101354004381000044810000458100004681000073
:101364004781000048810000498100004a81000053
:101374004b8100004c8100004d8100004e81000033
:101384004f81000050810000518100005281000013
:1013940053810000548100005581000056810000f3
:1013a4005781000058810000598100005a810000d3
:1013b4005c8100005d8100005e8100005f810000af
:1013c400608100006181000062810000638100008f
:1013d400648100006581000066810000678100006f
:1013e400688100006a8100006b8100006c8100004c
:1013f4006d8100006e8100006f810000708100002b
:101404007181000072810000748100007581000008
:1014140076810000778100007881000079810000e6
:101424007a8100007c8100007d8100007e810000c3
:101434007f810000808100008181000083810000a1
:10144400848100008581000086810000878100007e
:10145400898100008a8100008b8100008c8100005a
:101464008d8100008f810000908100009181000037
:101474009281000093810000958100009681000014
:1014840097810000988100009a8100009b810000f0
:101494009c8100009d8100009f810000a0810000cc
:1014a400a1810000a2810000a4810000a5810000a8
:1014b400a6810000a8810000a9810000aa81000083
:1014c400ab810000ad810000ae810000af8100005f
:1014d400b1810000b2810000b3810000b581000039
:1014e400b6810000b7810000b9810000ba81000014
:1014f400bb810000bd810000be810000bf810000ef
:10150400c1810000c2810000c3810000c5810000c8
:10151400c6810000c8810000c9810000ca810000a2
:10152400cc810000cd810000cf810000d08100007b
:10153400d1810000d3810000d4810000d681000055
:10154400d7810000d9810000da810000db8100002e
:10155400dd810000de810000e0810000e181000007
:10156400e3810000e4810000e6810000e7810000df
:10157400e9810000ea810000ec810000ed810000b7
:10158400ef810000f0810000f2810000f38100008f
:10159400f5810000f6810000f8810000f981000067
:1015a400fb810000fc810000fe810000ff8100003f
:1015b4000182000002820000048200000682000012
:1015c40007820000098200000a8200000c820000e9
:1015d4000e8200000f8200001182000012820000bf
:1015e4001482000016820000178200001982000095
:1015f4001a8200001c8200001e8200001f8200006c
:101604002182000023820000248200002682000040
:1016140028820000298200002b8200002d82000015
:101624002e820000308200003282000034820000ea
:101634003582000037820000398200003a820000bf
:101644003c8200003e820000408200004182000093
:101654004382000045820000478200004882000067
:101664004a8200004c8200004e820000508200003a
:10167400518200005382000055820000578200000e
:10168400598200005a8200005c8200005e820000e1
:1016940060820000628200006482000066820000b2
:1016a40067820000698200006b8200006d82000086
:1016b4006f82000071820000738200007582000056
:1016c40077820000788200007a8200007c82000029
:1016d4007e820000808200008282000084820000fa
:1016e40086820000888200008a8200008c820000ca
:1016f4008e8200009082000092820000948200009a
:1017040096820000988200009a8200009c82000069
:101714009e820000a0820000a2820000a482000039
:10172400a6820000a8820000aa820000ac82000009
:10173400ae820000b0820000b3820000b5820000d7
:10174400b7820000b9820000bb820000bd820000a5
:10175400bf820000c1820000c4820000c682000073
:10176400c8820000ca820000cc820000ce82000041
:10177400d1820000d3820000d5820000d78200000d
:10178400d9820000dc820000de820000e0820000da
:10179400e2820000e4820000e7820000e9820000a7
:1017a400eb820000ed820000f0820000f282000073
:1017b400f4820000f7820000f9820000fb8200003e
:1017c400fe82000000830000028300000583000005
:1017d40007830000098300000c8300000e830000cf
:1017e400108300001383000015830000178300009a
:1017f4001a8300001c8300001f8300002183000063
:101804002483000026830000288300002b8300002b
:101814002d830000308300003283000035830000f4
:10182400378300003a8300003c8300003f830000bc
:101834004183000044830000468300004983000084
:101844004b8300004e83000050830000538300004c
:1018540056830000588300005b8300005d83000012
:1018640060830000638300006583000068830000d8
:101874006b8300006d83000070830000738300009d
:1018840075830000788300007b8300007d83000063
:101894008083000083830000858300008883000028
:1018a4008b8300008e8300009083000093830000ec
:1018b40096830000998300009b8300009e830000b0
:1018c400a1830000a4830000a7830000a983000073
:1018d400ac830000af830000b2830000b583000036
:1018e400b8830000bb830000be830000c0830000f7
:1018f400c3830000c6830000c9830000cc830000ba
:10190400cf830000d2830000d5830000d883000079
:10191400db830000de830000e1830000e483000039
:10192400e7830000ea830000ed830000f0830000f9
:10193400f3830000f6830000f9830000fc830000b9
:10194400ff83000002840000058400000984000075
:101954000c8400000f840000128400001584000031
:10196400188400001b8400001f84000022840000ef
:1019740025840000288400002b8400002f840000ac
:101984003284000035840000388400003c84000068
:101994003f84000042840000458400004984000024
:1019a4004c8400004f8400005384000056840000df
:1019b400598400005d840000608400006484000099
:1019c400678400006a8400006e8400007184000053
:1019d40075840000788400007b8400007f8400000c
:1019e4008284000086840000898400008d840000c5
:1019f4009084000094840000978400009b8400007d
:101a04009f840000a2840000a6840000a984000032
:101a1400ad840000b0840000b4840000b8840000e9
:101a2400bb840000bf840000c3840000c68400009f
:101a3400ca840000ce840000d1840000d584000054
:101a4400d9840000dd840000e0840000e484000008
:101a5400e8840000ec840000ef840000f3840000bc
:101a6400f7840000fb840000ff840000038500006d
:101a7400068500000a8500000e850000128500001e
:101a8400168500001a8500001e85000022850000ce
:101a9400268500002a8500002e850000328500007e
:101aa400368500003a8500003e850000428500002e
:101ab400468500004a8500004e85000052850000de
:101ac400568500005a8500005e850000628500008e
:101ad400678500006b8500006f850000738500003a
:101ae400778500007b8500008085000084850000e8
:101af400888500008c850000918500009585000094
:101b0400998500009e850000a2850000a68500003e
:101b1400ab850000af850000b3850000b8850000e8
:101b2400bc850000c0850000c5850000c985000093
:101b3400ce850000d2850000d7850000db8500003b
:101b4400e0850000e4850000e9850000ed850000e3
:101b5400f2850000f6850000fb8500000086000089
:101b640004860000098600000d860000128600002d
:101b7400178600001b8600002086000025860000d2
:101b8400298600002e860000338600003886000077
:101b94003c86000041860000468600004b8600001b
:101ba4005086000055860000598600005e860000bd
:101bb40063860000688600006d860000728600005f
:101bc400778600007c8600008186000086860000ff
:101bd4008b86000090860000958600009a8600009f
:101be4009f860000a4860000a9860000ae8600003f
:101bf400b3860000b8860000bd860000c3860000de
:101c0400c8860000cd860000d2860000d78600007a
:101c1400dd860000e2860000e7860000ec86000016
:101c2400f2860000f7860000fc86000002870000b0
:101c3400078700000c870000128700001787000048
:101c44001d87000022870000288700002d870000e0
:101c540032870000388700003d870000438700007a
:101c6400498700004e870000548700005987000010
:101c74005f870000658700006a87000070870000a6
:101c8400768700007b87000081870000878700003b
:101c94008c87000092870000988700009e870000d0
:101ca400a4870000a9870000af870000b587000063
:101cb400bb870000c1870000c7870000cd870000f4
:101cc400d3870000d9870000df870000e587000084
:101cd400eb870000f1870000f7870000fd87000014
:101ce40003880000098800000f88000015880000a0
:101cf4001b88000021880000288800002e8800002e
:101d0400348800003a8800004188000047880000b9
:101d14004d880000538800005a8800006088000045
:101d2400678800006d880000738800007a880000ce
:101d340080880000878800008d8800009488000057
:101d44009a880000a1880000a7880000ae880000df
:101d5400b4880000bb880000c2880000c888000066
:101d6400cf880000d6880000dc880000e3880000eb
:101d7400ea880000f1880000f7880000fe8800006f
:101d8400058900000c890000138900001a890000ed
:101d940020890000278900002e8900003589000071
:101da4003c890000438900004a89000051890000f1
:101db400588900005f890000678900006e8900006f
:101dc400758900007c890000838900008a890000ed
:101dd4009289000099890000a0890000a789000069
:101de400af890000b6890000bd890000c5890000e4
:101df400cc890000d4890000db890000e28900005e
:101e0400ea890000f1890000f9890000008a0000d5
:101e1400088a0000108a0000178a00001f8a000048
:101e2400268a00002e8a0000368a00003d8a0000bf
:101e3400458a00004d8a0000558a00005d8a000032
:101e4400648a00006c8a0000748a00007c8a0000a6
:101e5400848a00008c8a0000948a00009c8a000016
:101e6400a48a0000ac8a0000b48a0000bc8a000086
:101e7400c48a0000cc8a0000d48a0000dc8a0000f6
:101e8400e48a0000ed8a0000f58a0000fd8a000063
:101e9400058b00000e8b0000168b00001e8b0000cb
:101ea400278b00002f8b0000378b0000408b000035
:101eb400488b0000518b0000598b0000628b00009e
:101ec4006a8b0000738b00007c8b0000848b000005
:101ed4008d8b0000968b00009e8b0000a78b00006a
:101ee400b08b0000b88b0000c18b0000ca8b0000cf
:101ef400d38b0000dc8b0000e58b0000ee8b000030
:101f0400f78b0000008c0000098c0000128c00008c
:101f14001b8c0000248c00002d8c0000368c0000eb
:101f24003f8c0000488c0000518c00005b8c00004a
:101f3400648c00006d8c0000768c0000808c0000a6
:101f4400898c0000928c00009c8c0000a58c000001
:101f5400af8c0000b88c0000c28c0000cb8c000059
:101f6400d58c0000de8c0000e88c0000f28c0000b0
:101f7400fb8c0000058d00000f8d0000188d000003
:101f8400228d00002c8d0000368d0000408d000055
:101f94004a8d0000538d00005d8d0000678d0000a8
:101fa400718d00007b8d0000858d00008f8d0000f9
:101fb4009a8d0000a48d0000ae8d0000b88d000045
:101fc400c28d0000cc8d0000d78d0000e18d000093
:101fd400eb8d0000f68d0000008e00000a8e0000dc
:101fe400158e00001f8e00002a8e0000348e000023
:101ff4003f8e0000498e0000548e00005f8e00006a
:10200400698e0000748e00007f8e00008a8e0000ae
:10201400948e00009f8e0000aa8e0000b58e0000f2
:10202400c08e0000cb8e0000d68e0000e18e000032
:10203400ec8e0000f78e0000028f00000d8f000070
:10204400188f0000238f00002e8f00003a8f0000ad
:10205400458f0000508f00005b8f0000678f0000e9
:10206400728f00007e8f0000898f0000958f000022
:10207400a08f0000ac8f0000b78f0000c38f00005a
:10208400ce8f0000da8f0000e68f0000f18f000091
:10209400fd8f0000099000001590000021900000c1
:1020a4002d900000389000004490000050900000f3
:1020b4005c90000068900000749000008190000023
:1020c4008d90000099900000a5900000b190000050
:1020d400be900000ca900000d6900000e39000007b
:1020e400ef900000fb9000000891000014910000a4
:1020f400219100002e9100003a91000047910000c8
:1021040053910000609100006d9100007a910000ed
:102114008691000093910000a0910000ad91000011
:10212400ba910000c7910000d4910000e191000031
:10213400ee910000fb91000008920000169200004e
:1021440023920000309200003d9200004b92000068
:102154005892000065920000739200008092000083
:102164008e9200009b920000a9920000b69200009b
:10217400c4920000d2920000df920000ed920000b1
:10218400fb920000099300001793000025930000c0
:1021940032930000409300004e9300005c930000d3
:1021a4006b930000799300008793000095930000df
:1021b400a3930000b1930000c0930000ce930000ed
:1021c400dc930000eb930000f993000008940000f6
:1021d40016940000259400003394000042940000fb
:1021e400519400005f9400006e9400007d94000000
:1021f4008c9400009b940000a9940000b894000003
:10220400c7940000d6940000e5940000f594000003
:1022140004950000139500002295000031950000fc
:1022240041950000509500005f9500006f950000f7
:102234007e9500008e9500009d950000ad950000f0
:10224400bc950000cc950000dc950000eb950000e7
:10225400fb9500000b9600001b9600002b960000d7
:102264003b9600004a9600005a9600006b960000c8
:102274007b9600008b9600009b960000ab960000b6
:10228400bb960000cc960000dc960000ec960000a3
:10229400fd9600000d9700001e9700002e97000089
:1022a4003f9700004f97000060970000719700006f
:1022b4008197000092970000a3970000b497000054
:1022c400c5970000d6970000e7970000f897000034
:1022d400099800001a9800002b9800003c98000010
:1022e4004e9800005f9800007098000082980000eb
:1022f40093980000a5980000b6980000c8980000c4
:10230400d9980000eb980000fd9800000e99000099
:102314002099000032990000449900005699000069
:10232400689900007a9900008c9900009e99000039
:10233400b0990000c2990000d4990000e699000009
:10234400f99900000b9a00001e9a0000309a0000d0
:10235400429a0000559a0000689a00007a9a000098
:102364008d9a0000a09a0000b29a0000c59a00005d
:10237400d89a0000eb9a0000fe9a0000119b00001e
:10238400249b0000379b00004a9b00005d9b0000db
:10239400709b0000849b0000979b0000aa9b000098
:1023a400be9b0000d19b0000e59b0000f89b000051
:1023b4000c9c00001f9c0000339c0000479c000004
:1023c4005b9c00006e9c0000829c0000969c0000b8
:1023d400aa9c0000be9c0000d29c0000e69c000069
:1023e400fb9c00000f9d0000239d0000379d000012
:1023f4004c9d0000609d0000749d0000899d0000bc
:102404009e9d0000b29d0000c79d0000db9d000062
:10241400f09d0000059e00001a9e00002f9e000003
:10242400449e0000599e00006e9e0000839e0000a2
:10243400989e0000ad9e0000c29e0000d89e000041
:10244400ed9e0000029f0000189f00002d9f0000d9
:10245400439f0000589f00006e9f0000849f00006f
:10246400999f0000af9f0000c59f0000db9f000004
:10247400f19f000007a000001da0000033a0000091
:1024840049a000005fa0000075a000008ca000001f
:10249400a2a00000b8a00000cfa00000e5a00000aa
:1024a400fca0000012a1000029a1000040a100002e
:1024b40056a100006da1000084a100009ba10000b2
:1024c400b2a10000c9a10000e0a10000f7a1000032
:1024d4000ea2000025a200003da2000054a20000ac
:1024e4006ba2000083a200009aa20000b2a2000026
:1024f400c9a20000e1a20000f9a2000010a300009c
:1025040028a3000040a3000058a3000070a300000b
:1025140088a30000a0a30000b8a30000d0a300007b
:10252400e9a3000001a4000019a4000032a40000e3
:102534004aa4000062a400007ba4000094a400004c
:10254400aca40000c5a40000dea40000f6a40000b2
:102554000fa5000028a5000041a500005aa5000011
:1025640073a500008ca50000a6a50000bfa500006f
:10257400d8a50000f2a500000ba6000024a60000c8
:102584003ea6000058a6000071a600008ba600001d
:10259400a5a60000bea60000d8a60000f2a6000072
:1025a4000ca7000026a7000040a700005aa70000bf
:1025b40074a700008fa70000a9a70000c3a700000c
:1025c400dea70000f8a7000013a800002da8000053
:1025d40048a8000063a800007da8000098a8000097
:1025e400b3a80000cea80000e9a8000004a90000d8
:1025f4001fa900003aa9000055a9000071a9000014
:102604008ca90000a7a90000c3a90000dea900004e
:10261400faa9000015aa000031aa00004daa000082
:1026240068aa000084aa0000a0aa0000bcaa0000b6
:10263400d8aa0000f4aa000010ab00002cab0000e4
:1026440048ab000065ab000081ab00009dab00000f
:10265400baab0000d6ab0000f3ab000010ac000036
:102664002cac000049ac000066ac000083ac000058
:10267400a0ac0000bdac0000daac0000f7ac000078
:1026840014ad000031ad00004ead00006cad000093
:1026940089ad0000a6ad0000c4ad0000e1ad0000ae
:1026a400ffad00001dae00003aae000058ae0000c1
:1026b40076ae000094ae0000b2ae0000d0ae0000d2
:1026c400eeae00000caf00002aaf000048af0000df
:1026d40067af000085af0000a4af0000c2af0000e8
:1026e400e1af0000ffaf00001eb000003db00000ed
:1026f4005bb000007ab0000099b00000b8b00000f0
:10270400d7b00000f6b0000015b1000034b10000ed
:1027140054b1000073b1000092b10000b2b10000e6
:10272400d1b10000f1b1000010b2000030b20000dd
:1027340050b200006fb200008fb20000afb20000d0
:10274400cfb20000efb200000fb300002fb30000bf
:1027540050b3000070b3000090b30000b0b30000a9
:10276400d1b30000f1b3000012b4000033b4000090
:1027740053b4000074b4000095b40000b6b4000073
:10278400d6b40000f7b4000018b500003ab5000054
:102794005bb500007cb500009db50000beb500002f
:1027a400e0b5000001b6000023b6000044b6000006
:1027b40066b6000088b60000a9b60000cbb60000db
:1027c400edb600000fb7000031b7000053b70000aa
:1027d40075b7000097b70000b9b70000dcb7000078
:1027e400feb7000020b8000043b8000065b8000040
:1027f40088b80000aab80000cdb80000f0b8000006
:1028040013b9000035b9000058b900007bb90000c5
:102814009eb90000c2b90000e5b9000008ba000082
:102824002bba00004eba000072ba000095ba00003c
:10283400b9ba0000dcba000000bb000024bb0000f1
:1028440047bb00006bbb00008fbb0000b3bb0000a4
:10285400d7bb0000fbbb00001fbc000043bc000052
:1028640068bc00008cbc0000b0bc0000d5bc0000fb
:10287400f9bc00001ebd000042bd000067bd0000a1
:102884008bbd0000b0bd0000d5bd0000fabd000046
:102894001fbe000044be000069be00008ebe0000e2
:1028a400b3be0000d8be0000fdbe000023bf000080
:1028b40048bf00006ebf000093bf0000b9bf000016
:1028c400debf000004c000002ac000004fc00000aa
:1028d40075c000009bc00000c1c00000e7c000003c
:1028e4000dc1000033c100005ac1000080c10000c6
:1028f400a6c10000cdc10000f3c1000019c2000050
:1029040040c2000067c200008dc20000b4c20000d3
:10291400dbc2000002c3000028c300004fc3000054
:1029240076c300009dc30000c4c30000ecc30000d4
:1029340013c400003ac4000061c4000089c400004c
:10294400b0c40000d8c40000ffc4000027c50000c4
:102954004fc5000076c500009ec50000c6c5000036
:10296400eec5000016c600003ec6000066c60000a4
:102974008ec60000b6c60000dec6000007c7000011
:102984002fc7000057c7000080c70000a8c7000079
:10299400d1c70000f9c7000022c800004bc80000de
:1029a40074c800009cc80000c5c80000eec8000040
:1029b40017c9000040c9000069c9000093c900009c
:1029c400bcc90000e5c900000eca000038ca0000f6
:1029d40061ca00008bca0000b4ca0000deca00004d
:1029e40007cb000031cb00005bcb000084cb0000a0
:1029f400aecb0000d8cb000002cc00002ccc0000f1
:102a040056cc000080cc0000aacc0000d5cc00003d
:102a1400ffcc000029cd000054cd00007ecd000085
:102a2400a8cd0000d3cd0000fecd000028ce0000cc
:102a340053ce00007ece0000a8ce0000d3ce00000e
:102a4400fece000029cf000054cf00007fcf00004d
:102a5400aacf0000d5cf000000d000002bd000008a
:102a640057d0000082d00000add00000d9d00000c3
:102a740004d1000030d100005bd1000087d10000f8
:102a8400b3d10000ded100000ad2000036d200002b
:102a940062d200008ed20000bad20000e6d200005a
:102aa40012d300003ed300006ad3000096d3000086
:102ab400c2d30000efd300001bd4000047d40000b1
:102ac40074d40000a0d40000cdd40000f9d40000d8
:102ad40026d5000053d500007fd50000acd50000fa
:102ae400d9d5000006d6000033d600005fd600001a
:102af4008cd60000b9d60000e6d6000014d700003a
:102b040041d700006ed700009bd70000c8d7000053
:102b1400f6d7000023d8000051d800007ed800006a
:102b2400acd80000d9d8000007d9000034d900007f
:102b340062d9000090d90000bdd90000ebd9000093
:102b440019da000047da000075da0000a3da0000a1
:102b5400d1da0000ffda00002ddb00005bdb0000af
:102b640089db0000b7db0000e6db000014dc0000ba
:102b740042dc000071dc00009fdc0000cddc0000c2
:102b8400fcdc00002add000059dd000088dd0000c7
:102b9400b6dd0000e5dd000014de000042de0000ca
:102ba40071de0000a0de0000cfde0000fede0000cb
:102bb4002ddf00005cdf00008bdf0000badf0000c7
:102bc400e9df000018e0000047e0000076e00000c4
:102bd400a6e00000d5e0000004e1000033e10000bd
:102be40063e1000092e10000c2e10000f1e10000b5
:102bf40021e2000050e2000080e20000afe20000a9
:102c0400dfe200000fe300003ee300006ee300009b
:102c14009ee30000cee30000fee300002de400008c
:102c24005de400008de40000bde40000ede400007c
:102c34001de500004de500007de50000aee5000067
:102c4400dee500000ee600003ee600006ee6000051
:102c54009fe60000cfe60000ffe6000030e700003a
:102c640060e7000090e70000c1e70000f1e7000022
:102c740022e8000052e8000083e80000b4e8000005
:102c8400e4e8000015e9000045e9000076e90000e9
:102c9400a7e90000d8e9000008ea000039ea0000ca
:102ca4006aea00009bea0000ccea0000fdea0000aa
:102cb4002eeb00005eeb00008feb0000c0eb000089
:102cc400f1eb000023ec000054ec000085ec000064
:102cd400b6ec0000e7ec000018ed000049ed000040
:102ce4007aed0000aced0000dded00000eee00001a
:102cf4003fee000071ee0000a2ee0000d3ee0000f3
:102d040005ef000036ef000068ef000099ef0000c7
:102d1400caef0000fcef00002df000005ff000009f
:102d240090f00000c2f00000f4f0000025f1000073
:102d340057f1000088f10000baf10000ecf1000046
:102d44001df200004ff2000081f20000b2f2000018
:102d5400e4f2000016f3000048f3000079f30000e9
:102d6400abf30000ddf300000ff4000041f40000b9
:102d740072f40000a4f40000d6f4000008f500008a
:102d84003af500006cf500009ef50000d0f5000057
:102d940002f6000034f6000066f6000098f6000023
:102da400caf60000fcf600002ef7000060f70000f1
:102db40092f70000c4f70000f6f7000028f80000be
:102dc4005af800008cf80000bef80000f0f800008b
:102dd40022f9000055f9000087f90000b9f9000054
:102de400ebf900001dfa00004ffa000081fa000020
:102df400b4fa0000e6fa000018fb00004afb0000e9
:102e04007cfb0000affb0000e1fb000013fc0000b2
:102e140045fc000077fc0000aafc0000dcfc00007c
:102e24000efd000040fd000073fd0000a5fd000044
:102e3400d7fd000009fe00003cfe00006efe00000d
:102e4400a0fe0000d2fe000005ff000037ff0000d6
:102e540069ff00009bff0000ceff0000000000009f
:102e6400320000006500000097000000c900000067
:102e7400fb0000002e010000600100009201000030
:102e8400c4010000f7010000290200005b020000f9
:102e94008d020000c0020000f202000024030000c2
:102ea4005603000089030000bb030000ed0300008b
:102eb4001f0400005104000084040000b604000054
:102ec400e80400001a0500004c0500007f0500001e
:102ed400b1050000e30500001506000047060000e8
:102ee40079060000ab060000de06000010070000b3
:102ef4004207000074070000a6070000d80700007e
:102f04000a0800003c0800006e080000a008000049
:102f1400d208000004090000360900006809000016
:102f24009a090000cc090000fe090000300a0000e4
:102f3400620a0000940a0000c60a0000f80a0000b1
:102f44002a0b00005c0b00008e0b0000bf0b00007e
:102f5400f10b0000230c0000550c0000870c00004e
:102f6400b80c0000ea0c00001c0d00004e0d00001f
:102f74007f0d0000b10d0000e30d0000140e0000f1
:102f8400460e0000780e0000a90e0000db0e0000c3
:102f94000c0f00003e0f0000700f0000a10f000096
:102fa400d30f00000410000036100000671000006a
:102fb40098100000ca100000fb1000002d11000042
:102fc4005e1100008f110000c1110000f211000019
:102fd400231200005412000086120000b7120000f1
:102fe400e8120000191300004a1300007b130000cc
:102ff400ac130000dd1300000f14000040140000a7
:1030040071140000a2140000d21400000315000083
:10301400341500006515000096150000c715000062
:10302400f815000028160000591600008a16000042
:10303400bb160000eb1600001c1700004c17000024
:103044007d170000ae170000de1700000f18000007
:103054003f18000070180000a0180000d0180000ed
:1030640001190000311900006119000092190000d3
:10307400c2190000f2190000221a0000521a0000be
:10308400831a0000b31a0000e31a0000131b0000a7
:10309400431b0000731b0000a31b0000d31b000094
:1030a400021c0000321c0000621c0000921c000084
:1030b400c21c0000f11c0000211d0000511d000075
:1030c400801d0000b01d0000df1d00000f1e000069
:1030d4003e1e00006e1e00009d1e0000cd1e00005e
:1030e400fc1e00002b1f00005a1f00008a1f000056
:1030f400b91f0000e81f0000172000004620000050
:1031040075200000a4200000d3200000022100004c
:1031140031210000602100008f210000be21000049
:10312400ec2100001b2200004a220000782200004b
:10313400a7220000d622000004230000332300004d
:10314400612300008f230000be230000ec23000055
:103154001a2400004924000077240000a52400005c
:10316400d3240000012500002f2500005d25000068
:103174008b250000b9250000e72500001526000076
:1031840043260000702600009e260000cc26000086
:10319400f92600002727000054270000822700009a
:1031a400af270000dd2700000a28000038280000af
:1031b4006528000092280000bf280000ec280000c9
:1031c4001a2900004729000074290000a1290000e1
:1031d400cd290000fa290000272a0000542a000003
:1031e400812a0000ad2a0000da2a0000072b000023
:1031f400332b0000602b00008c2b0000b92b000047
:10320400e52b0000112c00003e2c00006a2c00006d
:10321400962c0000c22c0000ee2c00001a2d000099
:10322400462d0000722d00009e2d0000ca2d0000c6
:10323400f62d0000222e00004d2e0000792e0000f5
:10324400a52e0000d02e0000fc2e0000272f000029
:10325400532f00007e2f0000a92f0000d52f00005f
:10326400003000002b300000563000008130000098
:10327400ac300000d7300000023100002d310000d6
:103284005831000082310000ad310000d831000017
:10329400023200002d320000583200008232000059
:1032a400ac320000d7320000013300002b330000a1
:1032b4005633000080330000aa330000d4330000ea
:1032c400fe33000028340000523400007c34000037
:1032d400a5340000cf340000f9340000223500008a
:1032e4004c350000753500009f350000c8350000de
:1032f400f23500001b360000443600006d36000035
:1033040097360000c0360000e9360000123700008e
:103314003b370000643700008c370000b5370000ed
:10332400de370000073800002f380000583800004e
:1033340080380000a9380000d1380000f9380000b6
:10334400223900004a390000723900009a3900001d
:10335400c2390000ea390000123a00003a3a00008b
:10336400623a00008a3a0000b13a0000d93a0000fb
:10337400013b0000283b0000503b0000773b00006d
:103384009f3b0000c63b0000ed3b0000143c0000e6
:103394003c3c0000633c00008a3c0000b13c00005f
:1033a400d83c0000fe3c0000253d00004c3d0000e0
:1033b400733d0000993d0000c03d0000e73d000062
:1033c4000d3e0000333e00005a3e0000803e0000e7
:1033d400a63e0000cd3e0000f33e0000193f000071
:1033e4003f3f0000653f00008b3f0000b13f0000fd
:1033f400d63f0000fc3f0000224000004740000090
:103404006d40000092400000b8400000dd40000024
:1034140003410000284100004d41000072410000ba
:1034240097410000bc410000e14100000642000059
:103434002b420000504200007542000099420000f7
:10344400be420000e2420000074300002b4300009c
:10345400504300007443000098430000bd43000043
:10346400e143000005440000294400004d440000ed
:103474007144000095440000b9440000dc4400009d
:103484000045000024450000474500006b4500004e
:103494008e450000b2450000d5450000f845000007
:1034a4001b4600003e4600006246000085460000c0
:1034b400a8460000cb460000ed460000104700007f
:1034c4003347000056470000784700009b47000040
:1034d400bd470000e0470000024800002448000007
:1034e40047480000694800008b480000ad480000d0
:1034f400cf480000f148000013490000354900009e
:1035040057490000784900009a490000bc4900006e
:10351400dd490000ff490000204a0000424a000043
:10352400634a0000844a0000a54a0000c64a00001d
:10353400e84a0000094b00002a4b00004a4b0000f7
:103544006b4b00008c4b0000ad4b0000cd4b0000da
:10355400ee4b00000f4c00002f4c0000504c0000bc
:10356400704c0000904c0000b04c0000d14c0000a6
:10357400f14c0000114d0000314d0000514d000090
:10358400714d0000914d0000b04d0000d04d000081
:10359400f04d00000f4e00002f4e00004e4e000074
:1035a4006e4e00008d4e0000ac4e0000cc4e00006c
:1035b400eb4e00000a4f0000294f0000484f000066
:1035c400674f0000864f0000a54f0000c34f000066
:1035d400e24f0000015000001f5000003e50000068
:1035e4005c5000007b50000099500000b85000006f
:1035f400d6500000f4500000125100003051000079
:103604004e5100006c5100008a510000a851000086
:10361400c6510000e3510000015200001f52000097
:103624003c5200005a5200007752000094520000ad
:10363400b2520000cf520000ec52000009530000c7
:103644002653000043530000605300007d530000e4
:103654009a530000b7530000d4530000f053000005
:103664000d5400002a540000465400006354000026
:103674007f5400009b540000b8540000d454000050
:10368400f05400000c55000028550000445500007b
:10369400605500007c55000098550000b3550000ab
:1036a400cf550000eb5500000656000022560000de
:1036b4003d56000059560000745600008f56000015
:1036c400ab560000c6560000e1560000fc56000050
:1036d40017570000325700004d570000685700008c
:1036e400835700009d570000b8570000d3570000cf
:1036f400ed57000008580000225800003d58000013
:1037040057580000715800008c580000a65800005b
:10371400c0580000da580000f45800000e590000a8
:1037240028590000425900005b59000075590000f7
:103734008f590000a8590000c2590000dc5900004c
:10374400f55900000e5a0000285a0000415a0000a2
:103754005a5a0000745a00008d5a0000a65a0000fc
:10376400bf5a0000d85a0000f15a00000a5b00005a
:10377400225b00003b5b0000545b00006c5b0000bc
:10378400855b00009e5b0000b65b0000ce5b000022
:10379400e75b0000ff5b0000175c0000305c00008a
:1037a400485c0000605c0000785c0000905c0000f5
:1037b400a85c0000c05c0000d85c0000f05c000065
:1037c400075d00001f5d0000375d00004e5d0000d6
:1037d400665d00007d5d0000955d0000ac5d00004d
:1037e400c35d0000db5d0000f25d0000095e0000c7
:1037f400205e0000375e00004e5e0000655e000043
:103804007c5e0000935e0000aa5e0000c05e0000c3
:10381400d75e0000ee5e0000045f00001b5f000046
:10382400315f0000485f00005e5f0000745f0000cd
:103834008b5f0000a15f0000b75f0000cd5f000058
:10384400e35f0000f95f00000f60000025600000e6
:103854003b60000051600000676000007c60000075
:1038640092600000a8600000bd600000d36000000a
:10387400e8600000fe6000001361000028610000a1
:103884003e61000053610000686100007d6100003a
:1038940092610000a7610000bc610000d1610000da
:1038a400e6610000fb610000106200002562000078
:1038b400396200004e62000062620000776200001c
:1038c4008c620000a0620000b4620000c9620000c3
:1038d400dd620000f1620000056300001a6300006d
:1038e4002e63000042630000566300006a63000018
:1038f4007e63000092630000a5630000b9630000ca
:10390400cd630000e1630000f4630000086400007c
:103914001b6400002f640000426400005664000031
:10392400696400007c64000090640000a3640000eb
:10393400b6640000c9640000dc640000ef640000a9
:103944000265000015650000286500003b65000065
:103954004e65000060650000736500008665000028
:1039640098650000ab650000be650000d0650000ee
:10397400e2650000f5650000076600001a660000b5
:103984002c6600003e66000050660000626600007f
:10399400746600008666000098660000aa6600004f
:1039a400bc660000ce660000e0660000f26600001f
:1039b40003670000156700002767000038670000f0
:1039c4004a6700005b6700006d6700007e670000c7
:1039d40090670000a1670000b2670000c4670000a0
:1039e400d5670000e6670000f7670000086800007c
:1039f400196800002a6800003b6800004c68000059
:103a04005d6800006e6800007f6800008f68000039
:103a1400a0680000b1680000c1680000d26800001e
:103a2400e2680000f3680000036900001469000004
:103a340024690000346900004569000055690000ec
:103a440065690000756900008569000095690000da
:103a5400a6690000b6690000c5690000d5690000c8
:103a6400e5690000f5690000056a0000156a0000b8
:103a7400246a0000346a0000446a0000536a0000ab
:103a8400636a0000726a0000826a0000916a0000a2
:103a9400a16a0000b06a0000bf6a0000cf6a00009b
:103aa400de6a0000ed6a0000fc6a00000b6b000097
:103ab4001b6b00002a6b0000396b0000486b000090
:103ac400576b0000656b0000746b0000836b000093
:103ad400926b0000a16b0000af6b0000be6b000096
:103ae400cd6b0000db6b0000ea6b0000f86b00009c
:103af400076c0000156c0000246c0000326c0000a0
:103b0400406c00004f6c00005d6c00006b6c0000aa
:103b1400796c0000876c0000956c0000a46c0000b8
:103b2400b26c0000c06c0000ce6c0000db6c0000c6
:103b3400e96c0000f76c0000056d0000136d0000d7
:103b4400216d00002e6d00003c6d00004a6d0000e8
:103b5400576d0000656d0000726d0000806d0000ff
:103b64008d6d00009b6d0000a86d0000b56d000018
:103b7400c36d0000d06d0000dd6d0000ea6d000033
:103b8400f86d0000056e0000126e00001f6e00004c
:103b94002c6e0000396e0000466e0000536e00006b
:103ba400606e00006d6e00007a6e0000866e00008c
:103bb400936e0000a06e0000ad6e0000b96e0000b0
:103bc400c66e0000d26e0000df6e0000ec6e0000d6
:103bd400f86e0000056f0000116f00001d6f0000fb
:103be4002a6f0000366f0000426f00004f6f000024
:103bf4005b6f0000676f0000736f00007f6f000051
:103c04008c6f0000986f0000a46f0000b06f00007c
:103c1400bc6f0000c86f0000d36f0000df6f0000ae
:103c2400eb6f0000f76f0000037000000f700000de
:103c34001a70000026700000327000003d70000011
:103c44004970000054700000607000006b70000048
:103c540077700000827000008e7000009970000080
:103c6400a5700000b0700000bb700000c6700000ba
:103c7400d2700000dd700000e8700000f3700000f6
:103c8400fe70000009710000147100001f71000033
:103c94002a71000035710000407100004b71000072
:103ca40056710000617100006c71000076710000b3
:103cb400817100008c71000097710000a1710000f7
:103cc400ac710000b7710000c1710000cc7100003c
:103cd400d6710000e1710000eb710000f671000084
:103ce400007200000a720000157200001f720000ca
:103cf40029720000347200003e7200004872000015
:103d0400527200005c720000667200007172000062
:103d14007b720000857200008f72000099720000af
:103d2400a3720000ad720000b6720000c072000001
:103d3400ca720000d4720000de720000e872000053
:103d4400f1720000fb720000057300000e730000a6
:103d540018730000227300002b73000035730000f9
:103d64003e73000048730000517300005b73000051
:103d7400647300006e7300007773000080730000aa
:103d84008a730000937300009c730000a573000005
:103d9400af730000b8730000c1730000ca73000061
:103da400d3730000dc730000e5730000ee730000c1
:103db400f77300000074000009740000127400001e
:103dc4001b740000247400002d740000367400007d
:103dd4003f740000487400005074000059740000df
:103de400627400006a740000737400007c74000044
:103df400847400008d740000967400009e740000aa
:103e0400a7740000af740000b8740000c074000010
:103e1400c9740000d1740000d9740000e274000079
:103e2400ea740000f2740000fb74000003750000e3
:103e34000b750000137500001c750000247500004c
:103e44002c750000347500003c75000044750000ba
:103e54004c750000547500005c750000647500002a
:103e64006c750000747500007c750000847500009a
:103e74008c750000947500009c750000a37500000b
:103e8400ab750000b3750000bb750000c37500007e
:103e9400ca750000d2750000da750000e1750000f3
:103ea400e9750000f0750000f87500000076000068
:103eb400077600000f760000167600001e760000dc
:103ec400257600002c760000347600003b76000056
:103ed400437600004a7600005176000059760000cf
:103ee40060760000677600006e760000767600004b
:103ef4007d760000847600008b76000092760000c8
:103f040099760000a1760000a8760000af76000044
:103f1400b6760000bd760000c4760000cb760000c3
:103f2400d2760000d9760000e0760000e676000044
:103f3400ed760000f4760000fb76000002770000c6
:103f4400097700000f770000167700001d77000046
:103f5400247700002a7700003177000038770000ca
:103f64003e770000457700004c7700005277000050
:103f7400597700005f770000667700006c770000d7
:103f8400737700007977000080770000867700005f
:103f94008d7700009377000099770000a0770000e8
:103fa400a6770000ad770000b3770000b977000072
:103fb400bf770000c6770000cc770000d2770000fe
:103fc400d8770000df770000e5770000eb7700008a
:103fd400f1770000f7770000fd7700000378000018
:103fe400097800000f780000157800001b780000a5
:103ff40021780000277800002d7800003378000035
:10400400397800003f780000457800004b780000c4
:1040140051780000577800005c7800006278000056
:10402400687800006e7800007478000079780000e9
:104034007f780000857800008a780000907800007e
:10404400967800009b780000a1780000a778000013
:10405400ac780000b2780000b7780000bd780000aa
:10406400c3780000c8780000ce780000d378000040
:10407400d8780000de780000e3780000e9780000da
:10408400ee780000f4780000f9780000fe78000073
:1040940004790000097900000e7900001479000009
:1040a400197900001e7900002379000029790000a5
:1040b4002e79000033790000387900003d79000042
:1040c40043790000487900004d79000052790000de
:1040d400577900005c79000061790000667900007e
:1040e4006b79000070790000757900007a7900001e
:1040f4007f79000084790000897900008e790000be
:1041040093790000987900009d790000a27900005d
:10411400a7790000ab790000b0790000b579000000
:10412400ba790000bf790000c4790000c8790000a2
:10413400cd790000d2790000d7790000db79000046
:10414400e0790000e5790000e9790000ee790000eb
:10415400f3790000f7790000fc790000007a000090
:10416400057a00000a7a00000e7a0000137a000033
:10417400177a00001c7a0000207a0000257a0000db
:10418400297a00002e7a0000327a0000377a000083
:104194003b7a0000407a0000447a0000487a00002c
:1041a4004d7a0000517a0000557a00005a7a0000d6
:1041b4005e7a0000627a0000677a00006b7a000081
:1041c4006f7a0000747a0000787a00007c7a00002c
:1041d400807a0000857a0000897a00008d7a0000d8
:1041e400917a0000957a0000997a00009e7a000086
:1041f400a27a0000a67a0000aa7a0000ae7a000033
:10420400b27a0000b67a0000ba7a0000be7a0000e2
:10421400c27a0000c67a0000ca7a0000ce7a000092
:10422400d27a0000d67a0000da7a0000de7a000042
:10423400e27a0000e67a0000ea7a0000ee7a0000f2
:10424400f27a0000f67a0000fa7a0000fd7a0000a3
:10425400017b0000057b0000097b00000d7b000052
:10426400117b0000147b0000187b00001c7b000005
:10427400207b0000237b0000277b00002b7b0000b9
:104284002f7b0000327b0000367b00003a7b00006d
:104294003d7b0000417b0000457b0000487b000023
:1042a4004c7b0000507b0000537b0000577b0000d8
:1042b4005a7b00005e7b0000617b0000657b000090
:1042c400697b00006c7b0000707b0000737b000046
:1042d400777b00007a7b00007e7b0000817b0000fe
:1042e400857b0000887b00008b7b00008f7b0000b7
:1042f400927b0000967b0000997b00009c7b000071
:10430400a07b0000a37b0000a77b0000aa7b000029
:10431400ad7b0000b17b0000b47b0000b77b0000e4
:10432400bb7b0000be7b0000c17b0000c47b00009f
:10433400c87b0000cb7b0000ce7b0000d17b00005b
:10434400d57b0000d87b0000db7b0000de7b000017
:10435400e17b0000e57b0000e87b0000eb7b0000d4
:10436400ee7b0000f17b0000f47b0000f77b000093
:10437400fb7b0000fe7b0000017c0000047c00004d
:10438400077c00000a7c00000d7c0000107c00000b
:10439400137c0000167c0000197c00001c7c0000cb
:1043a4001f7c0000227c0000257c0000287c00008b
:1043b4002b7c00002e7c0000317c0000347c00004b
:1043c400377c00003a7c00003d7c0000407c00000b
:1043d400427c0000457c0000487c00004b7c0000cf
:1043e4004e7c0000517c0000547c0000577c00008f
:1043f400597c00005c7c00005f7c0000627c000053
:10440400657c0000677c00006a7c00006d7c000015
:10441400707c0000727c0000757c0000787c0000d9
:104424007b7c00007d7c0000807c0000837c00009d
:10443400857c0000887c00008b7c00008d7c000063
:10444400907c0000937c0000957c0000987c000028
:104454009b7c00009d7c0000a07c0000a37c0000ed
:10446400a57c0000a87c0000aa7c0000ad7c0000b4
:10447400b07c0000b27c0000b57c0000b77c00007a
:10448400ba7c0000bc7c0000bf7c0000c17c000042
:10449400c47c0000c67c0000c97c0000cb7c00000a
:1044a400ce7c0000d07c0000d37c0000d57c0000d2
:1044b400d87c0000da7c0000dc7c0000df7c00009b
:1044c400e17c0000e47c0000e67c0000e97c000064
:1044d400eb7c0000ed7c0000f07c0000f27c00002e
:1044e400f47c0000f77c0000f97c0000fb7c0000f9
:1044f400fe7c0000007d0000027d0000057d0000c0
:10450400077d0000097d00000c7d00000e7d000089
:10451400107d0000137d0000157d0000177d000054
:10452400197d00001c7d00001e7d0000207d000020
:10453400227d0000247d0000277d0000297d0000ed
:104544002b7d00002d7d00002f7d0000327d0000ba
:10455400347d0000367d0000387d00003a7d000087
:104564003c7d00003f7d0000417d0000437d000054
:10457400457d0000477d0000497d00004b7d000023
:104584004d7d0000507d0000527d0000547d0000f0
:10459400567d0000587d00005a7d00005c7d0000bf
:1045a4005e7d0000607d0000627d0000647d00008f
:1045b400667d0000687d00006a7d00006c7d00005f
:1045c4006e7d0000707d0000727d0000747d00002f
:1045d400767d0000787d00007a7d00007c7d0000ff
:1045e4007e7d0000807d0000827d0000847d0000cf
:1045f400867d0000887d0000897d00008b7d0000a1
:104604008d7d00008f7d0000917d0000937d000072
:10461400957d0000977d0000997d00009a7d000043
:104624009c7d00009e7d0000a07d0000a27d000016
:10463400a47d0000a67d0000a77d0000a97d0000e8
:10464400ab7d0000ad7d0000af7d0000b07d0000bb
:10465400b27d0000b47d0000b67d0000b87d00008e
:10466400b97d0000bb7d0000bd7d0000bf7d000062
:10467400c07d0000c27d0000c47d0000c67d000036
:10468400c77d0000c97d0000cb7d0000cc7d00000b
:10469400ce7d0000d07d0000d27d0000d37d0000df
:1046a400d57d0000d77d0000d87d0000da7d0000b4
:1046b400dc7d0000dd7d0000df7d0000e17d000089
:1046c400e27d0000e47d0000e67d0000e77d00005f
:1046d400e97d0000ea7d0000ec7d0000ee7d000035
:1046e400ef7d0000f17d0000f27d0000f47d00000c
:1046f400f67d0000f77d0000f97d0000fa7d0000e2
:10470400fc7d0000fe7d0000ff7d0000017e0000b6
:10471400027e0000047e0000057e0000077e00008b
:10472400087e00000a7e00000b7e00000d7e000063
:104734000e7e0000107e0000117e0000137e00003b
:10474400147e0000167e0000177e0000197e000013
:104754001a7e00001c7e00001d7e00001f7e0000eb
:10476400207e0000227e0000237e0000257e0000c3
:10477400267e0000277e0000297e00002a7e00009d
:104784002c7e00002d7e00002f7e0000307e000075
:10479400317e0000337e0000347e0000367e00004f
:1047a400377e0000387e00003a7e00003b7e000029
:1047b4003d7e00003e7e00003f7e0000417e000002
:1047c400427e0000437e0000457e0000467e0000dd
:1047d400477e0000497e00004a7e00004b7e0000b8
:1047e4004d7e00004e7e00004f7e0000517e000092
:1047f400527e0000537e0000557e0000567e00006d
:10480400577e0000587e00005a7e00005b7e000048
:104814005c7e00005e7e00005f7e0000607e000023
:10482400617e0000637e0000647e0000657e0000ff
:10483400667e0000687e0000697e00006a7e0000db
:104844006b7e00006d7e00006e7e00006f7e0000b7
:10485400707e0000717e0000737e0000747e000094
:10486400757e0000767e0000777e0000797e000071
:104874007a7e00007b7e00007c7e00007d7e00004e
:104884007f7e0000807e0000817e0000827e00002a
:10489400837e0000847e0000867e0000877e000008
:1048a400887e0000897e00008a7e00008b7e0000e6
:1048b4008c7e00008e7e00008f7e0000907e0000c3
:1048c400917e0000927e0000937e0000947e0000a2
:1048d400957e0000967e0000987e0000997e000080
:1048e4009a7e00009b7e00009c7e00009d7e00005e
:1048f4009e7e00009f7e0000a07e0000a17e00003e
:10490400a27e0000a37e0000a47e0000a67e00001c
:10491400a77e0000a87e0000a97e0000aa7e0000f9
:10492400ab7e0000ac7e0000ad7e0000ae7e0000d9
:10493400af7e0000b07e0000b17e0000b27e0000b9
:10494400b37e0000b47e0000b57e0000b67e000099
:10495400b77e0000b87e0000b97e0000ba7e000079
:10496400bb7e0000bc7e0000bd7e0000be7e000059
:10497400bf7e0000c07e0000c17e0000c27e000039
:10498400c37e0000c47e0000c57e0000c67e000019
:10499400c77e0000c87e0000c97e0000c97e0000fa
:1049a400ca7e0000cb7e0000cc7e0000cd7e0000dd
:1049b400ce7e0000cf7e0000d07e0000d17e0000bd
:1049c400d27e0000d37e0000d47e0000d57e00009d
:1049d400d67e0000d67e0000d77e0000d87e000080
:1049e400d97e0000da7e0000db7e0000dc7e000061
:1049f400dd7e0000de7e0000de7e0000df7e000043
:104a0400e07e0000e17e0000e27e0000e37e000024
:104a1400e47e0000e57e0000e57e0000e67e000006
:104a2400e77e0000e87e0000e97e0000ea7e0000e8
:104a3400eb7e0000eb7e0000ec7e0000ed7e0000cb
:104a4400ee7e0000ef7e0000f07e0000f07e0000ad
:104a5400f17e0000f27e0000f37e0000f47e000090
:104a6400f47e0000f57e0000f67e0000f77e000074
:104a7400f87e0000f97e0000f97e0000fa7e000056
:104a8400fb7e0000fc7e0000fd7e0000fd7e000039
:104a9400fe7e0000ff7e0000007f0000007f00001b
:104aa400017f0000027f0000037f0000047f0000fc
:104ab400047f0000057f0000067f0000077f0000e0
:104ac400077f0000087f0000097f00000a7f0000c4
:104ad4000a7f00000b7f00000c7f00000d7f0000a8
:104ae4000d7f00000e7f00000f7f0000107f00008c
:104af400107f0000117f0000127f0000127f000071
:104b0400137f0000147f0000157f0000157f000054
:104b1400167f0000177f0000177f0000187f000039
:104b2400197f00001a7f00001a7f00001b7f00001d
:104b34001c7f00001c7f00001d7f00001e7f000002
:104b44001e7f00001f7f0000207f0000207f0000e8
:104b5400217f0000227f0000237f0000237f0000cc
:104b6400247f0000257f0000257f0000267f0000b1
:104b7400277f0000277f0000287f0000287f000097
:104b8400297f00002a7f00002a7f00002b7f00007d
:104b94002c7f00002c7f00002d7f00002e7f000062
:104ba4002e7f00002f7f0000307f0000307f000048
:104bb400317f0000317f0000327f0000337f00002e
:104bc400337f0000347f0000357f0000357f000014
:104bd400367f0000367f0000377f0000387f0000fa
:104be400387f0000397f0000397f00003a7f0000e1
:104bf4003b7f00003b7f00003c7f00003c7f0000c7
:104c04003d7f00003e7f00003e7f00003f7f0000ac
:104c14003f7f0000407f0000417f0000417f000093
:104c2400427f0000427f0000437f0000437f00007a
:104c3400447f0000457f0000457f0000467f000060
:104c4400467f0000477f0000477f0000487f000048
:104c5400497f0000497f00004a7f00004a7f00002e
:104c64004b7f00004b7f00004c7f00004c7f000016
:104c74004d7f00004e7f00004e7f00004f7f0000fc
:104c84004f7f0000507f0000507f0000517f0000e4
:104c9400517f0000527f0000527f0000537f0000cc
:104ca400537f0000547f0000547f0000557f0000b4
:104cb400567f0000567f0000577f0000577f00009a
:104cc400587f0000587f0000597f0000597f000082
:104cd4005a7f00005a7f00005b7f00005b7f00006a
:104ce4005c7f00005c7f00005d7f00005d7f000052
:104cf4005e7f00005e7f00005f7f00005f7f00003a
:104d0400607f0000607f0000617f0000617f000021
:104d1400627f0000627f0000627f0000637f00000a
:104d2400637f0000647f0000647f0000657f0000f3
:104d3400657f0000667f0000667f0000677f0000db
:104d4400677f0000687f0000687f0000697f0000c3
:104d5400697f0000697f00006a7f00006a7f0000ad
:104d64006b7f00006b7f00006c7f00006c7f000095
:104d74006d7f00006d7f00006e7f00006e7f00007d
:104d84006e7f00006f7f00006f7f0000707f000067
:104d9400707f0000717f0000717f0000727f00004f
:104da400727f0000727f0000737f0000737f000039
:104db400747f0000747f0000757f0000757f000021
:104dc400757f0000767f0000767f0000777f00000b
:104dd400777f0000777f0000787f0000787f0000f5
:104de400797f0000797f00007a7f00007a7f0000dd
:104df4007a7f00007b7f00007b7f00007c7f0000c7
:104e04007c7f00007c7f00007d7f00007d7f0000b0
:104e14007e7f00007e7f00007e7f00007f7f000099
:104e24007f7f00007f7f0000807f0000807f000084
:104e3400817f0000817f0000817f0000827f00006d
:104e4400827f0000837f0000837f0000837f000057
:104e5400847f0000847f0000847f0000857f000041
:104e6400857f0000867f0000867f0000867f00002b
:104e7400877f0000877f0000877f0000887f000015
:104e8400887f0000897f0000897f0000897f0000ff
:104e94008a7f00008a7f00008a7f00008b7f0000e9
:104ea4008b7f00008b7f00008c7f00008c7f0000d4
:104eb4008c7f00008d7f00008d7f00008e7f0000be
:104ec4008e7f00008e7f00008f7f00008f7f0000a8
:104ed4008f7f0000907f0000907f0000907f000093
:104ee400917f0000917f0000917f0000927f00007d
:104ef400927f0000927f0000937f0000937f000068
:104f0400937f0000947f0000947f0000947f000052
:104f1400957f0000957f0000957f0000967f00003c
:104f2400967f0000967f0000977f0000977f000027
:104f3400977f0000977f0000987f0000987f000013
:104f4400987f0000997f0000997f0000997f0000fe
:104f54009a7f00009a7f00009a7f00009b7f0000e8
:104f64009b7f00009b7f00009c7f00009c7f0000d3
:104f74009c7f00009c7f00009d7f00009d7f0000bf
:104f84009d7f00009e7f00009e7f00009e7f0000aa
:104f94009f7f00009f7f00009f7f00003c01000076
:104fa4004001000045010000490100004e010000dd
:104fb40052010000570100005c0100006001000084
:104fc400650100006a0100006f0100007401000027
:104fd400790100007e0100008301000089010000c6
:104fe4008e01000093010000990100009e01000061
:104ff400a4010000aa010000af010000b5010000f7
:10500400bb010000c1010000c7010000ce01000087
:10501400d4010000da010000e1010000e701000012
:10502400ee010000f4010000fb0100000202000098
:105034000902000010020000170200001f02000015
:10504400260200002d020000350200003d0200008f
:10505400440200004c020000540200005c02000004
:10506400650200006d020000750200007e0200006f
:10507400870200008f02000098020000a1020000d5
:10508400aa020000b3020000bd020000c602000034
:10509400d0020000da020000e4020000ee02000088
:1050a400f8020000020300000c03000017030000d4
:1050b400220300002c030000370300004303000018
:1050c4004e03000059030000650300007103000053
:1050d4007c0300008803000095030000a103000086
:1050e400ae030000ba030000c7030000d4030000ad
:1050f400e1030000ef030000fc0300000a040000c9
:1051040018040000260400003404000043040000d6
:1051140052040000600400006f0400007f040000db
:105124008e0400009e040000ae040000be040000d3
:10513400ce040000df040000ef04000000050000be
:105144001105000023050000340500004605000099
:10515400580500006b0500007d0500009005000067
:10516400a3050000b6050000ca050000de05000026
:10517400f2050000060600001b06000030060000d1
:10518400450600005a06000070060000860600006e
:105194009c060000b3060000c9060000e1060000fa
:1051a400f806000010070000280700004007000070
:1051b40059070000720700008b070000a5070000d4
:1051c400bf070000d9070000f30700000e08000025
:1051d4002a08000045080000610800007e0800005d
:1051e4009a080000b8080000d5080000f308000081
:1051f40011090000300900004f0900006e09000089
:105204008e090000ae090000ce090000ef0900007d
:10521400110a0000330a0000550a0000780a000051
:105224009b0a0000be0a0000e20a0000070b00000f
:105234002c0b0000510b0000770b00009d0b0000ad
:10524400c40b0000eb0b0000130c00003b0c00002f
:10525400640c00008d0c0000b60c0000e10c000092
:105264000b0d0000370d0000620d00008f0d0000d3
:10527400bc0d0000e90d0000170e0000450e0000f3
:10528400750e0000a40e0000d40e0000050f0000ef
:10529400360f0000680f00009b0f0000ce0f0000c7
:1052a40002100000361000006b100000a110000076
:1052b400d71000000e110000451100007e110000ff
:1052c400b6110000f01100002a120000651200005f
:1052d400a0120000dd1200001a1300005713000092
:1052e40095130000d413000014140000541400009b
:1052f40096140000d81400001a1500005e15000072
:10530400a2150000e71500002c160000731600001b
:10531400ba160000021700004b1700009417000093
:10532400df1700002a18000076180000c3180000d8
:10533400101900005f190000ae190000fe190000ea
:105344004f1a0000a11a0000f41a0000471b0000c5
:105354009c1b0000f11b0000471c00009e1c000069
:10536400f61c00004f1d0000a91d0000031e0000d4
:105374005f1e0000bb1e0000191f0000771f000005
:10538400d61f00003620000097200000f9200000fe
:105394005c210000c0210000252200008b220000b7
:1053a400f222000059230000c22300002c24000034
:1053b40096240000022500006e250000dc25000074
:1053c4004a260000ba2600002a2700009c27000075
:1053d4000e28000081280000f62800006b29000038
:1053e400e1290000582a0000d02a00004a2b0000be
:1053f400c42b00003f2c0000bb2c0000382d000003
:10540400b62d0000352e0000b52e0000362f00000a
:10541400b82f00003a300000be30000043310000d5
:10542400c83100004f320000d63200005f33000064
:10543400e833000072340000fd34000089350000b8
:1054440016360000a336000032370000c1370000d2
:1054540051380000e238000074390000073a0000b7
:105464009a3a00002f3b0000c43b0000593c000066
:10547400f03c0000873d00001f3e0000b73e0000e6
:10548400513f0000eb3f0000854000002041000038
:10549400bc41000059420000f64200009343000062
:1054a40031440000d04400006f4500000e46000067
:1054b400ae4600004f470000f0470000914800004e
:1054c40032490000d4490000774a0000194b00001b
:1054d400bc4b00005f4c0000024d0000a54d0000d5
:1054e400494e0000ed4e0000904f00003450000083
:1054f400d85000007c51000020520000c35200002c
:10550400675300000b540000ae54000051550000d6
:10551400f45500009756000039570000db5700008f
:105524007d5800001f590000c0590000605a000057
:10553400005b0000a05b00003f5c0000dd5c00003d
:105544007b5d0000185e0000b45e0000505f000048
:10555400eb5f0000856000001e610000b661000082
:105564004e620000e46200007a6300000e640000f2
:10557400a164000034650000c565000055660000a4
:10558400e466000072670000fe670000896800009e
:10559400136900009c690000236a0000a96a0000e6
:1055a4002d6b0000b06b0000316c0000b16c00008a
:1055b4002f6d0000ac6d0000276e0000a16e00008e
:1055c400186f00008f6f00000370000076700000f9
:1055d400e770000057710000c471000030720000d1
:1055e4009a7200000373000069730000ce73000018
:1055f4003174000092740000f17400004e750000d4
:105604000008000056050000ab020000c8010000bd
:105614005601000012010000e4000000c400000074
:10562400ab00000098000000890000007d0000002d
:10563400720000006a000000620000005c000000cc
:1056440056000000510000004c000000480000001b
:1056540045000000420000003f0000003c00000044
:10566400390000003700000035000000330000005e
:1056740031000000300000002e0000002d0000006a
:105684002b0000002a000000290000002800000070
:105694002600000025000000240000002400000073
:1056a4002300000022000000210000002000000070
:1056b400200000001f0000001e0000001e0000006b
:1056c4001d0000001c0000001c0000001b00000066
:1056d4001b0000001a0000001a000000190000005e
:1056e4001900000018000000180000001800000055
:1056f400170000001700000017000000160000004b
:10570400160000001600000015000000150000003f
:105714001500000014000000140000001400000034
:105724001300000013000000130000001300000029
:10573400120000001200000012000000120000001d
:105744001200000011000000110000001100000010
:105754001100000011000000100000001000000003
:1057640010000000100000001000000010000000f5
:105774000f0000000f0000000f0000000f000000e9
:105784000f0000000f0000000e0000000e000000db
:105794000e0000000e0000000e0000000e000000cd
:1057a4000e0000000e0000000d0000000d000000bf
:1057b4000d0000000d0000000d0000000d000000b1
:1057c4000d0000000d0000000c0000000c000000a3
:1057d4000c0000000c0000000c0000000c00000095
:1057e4000c0000000c0000000c0000000c00000085
:1057f4000c0000000b0000000b0000000b00000078
:105804000b0000000b0000000b0000000b00000068
:105814000b0000000b0000000b0000000b00000058
:105824000b0000000a0000000a0000000a0000004b
:105834000a0000000a0000000a0000000a0000003c
:105844000a0000000a0000000a0000000a0000002c
:105854000a0000000a0000000a0000000a0000001c
:105864000900000009000000090000000900000010
:105874000900000009000000090000000900000000
:1058840009000000090000000900000009000000f0
:1058940009000000090000000900000009000000e0
:1058a40009000000090000000900000008000000d1
:1058b40008000000080000000800000008000000c4
:1058c40008000000080000000800000008000000b4
:1058d40008000000080000000800000008000000a4
:1058e4000800000008000000080000000800000094
:1058f4000800000008000000080000000800000084
:105904000800000008000000080000000800000073
:105914000700000007000000070000000700000067
:105924000700000007000000070000000700000057
:105934000700000007000000070000000700000047
:105944000700000007000000070000000700000037
:105954000700000007000000070000000700000027
:105964000700000007000000070000000700000017
:105974000700000007000000070000000700000007
:1059840007000000070000000700000007000000f7
:1059940006000000060000000600000006000000eb
:1059a40006000000060000000600000006000000db
:1059b40006000000060000000600000006000000cb
:1059c40006000000060000000600000006000000bb
:1059d40006000000060000000600000006000000ab
:1059e400060000000600000006000000060000009b
:1059f400060000000600000006000000060000008b
:105a0400060000000600000006000000060000007a
:105a1400060000000600000006000000060000006a
:105a2400060000000600000006000000060000005a
:105a3400060000000600000006000000060000004a
:105a4400060000000600000005000000050000003c
:105a5400050000000500000005000000050000002e
:105a6400050000000500000005000000050000001e
:105a7400050000000500000005000000050000000e
:105a840005000000050000000500000005000000fe
:105a940005000000050000000500000005000000ee
:105aa40005000000050000000500000005000000de
:105ab40005000000050000000500000005000000ce
